:100000000C9419020C944A020C944A020C944A0271
:100010000C944A020C944A020C944A020C944A0230
:100020000C944A020C944A020C944A020C944A0220
:100030000C944A020C944A020C944A020C944A0210
:100040000C944A020C942A270C944A020C944A02FB
:100050000C944A020C944A020C944A020C945626C0
:100060000C944A020C9420260C94F6250C944A0217
:100070000C944A020C944A020C944A020C944A02D0
:100080000C94FC260C944A020C944A020C944A02EA
:100090000C944A020C944A020C944A020C9458277D
:1000A0000C944A020C944A020C94CE260C944A02F8
:1000B0000C944A020C944A020C944A020C94A02616
:1000C0000C944A020C944A020C944A020C944A0280
:1000D0000C944A020C944A020C944A020C944A0270
:1000E0000C944A020C94B32E0C94560B0C94D00E24
:1000F0000C949F230C94E9230C9461030C94E40367
:100100000C94B4030C94FD0E0C94D2030C94DA03FB
:100110000C94EE0E0C94B1030C94DC020C94EB17CF
:100120000C9443240C9470080C940B220C9414032C
:100130000C94B72E0C94A5030C941D180C948908EC
:100140000C94C80E0C94BE030C94E0030C9453085A
:100150000C94AD030C94922E0C94C00E0C94A90335
:100160000C94BA020C94070F0C9413180C94B60E4E
:100170000C9429190C946D080C94980E0C949B24E3
:100180000C9423190C94F6240C94A20E0C94481889
:100190000C942F0F0C94CE020C94BA030C94CC0345
:1001A0000C94C0230C949F030C9486080C94C403F5
:1001B0000C94C8280C949D0E0C94110F0C941B0FDA
:1001C0000C94DA0E0C944C020C94DF030C9433253F
:1001D0000C944D220C9475020C94250F0C94AB2FAB
:1001E0000C94AB020C94D6030C94C8030C948218A4
:1001F0000C9418180C94E40E0C945F020C94AC0E42
:1002000000407A10F35A00A0724E18090010A5D4CD
:10021000E80000E87648170000E40B54020000CA2A
:100220009A3B000000E1F505000080969800000070
:1002300040420F000000A0860100000010270000CF
:100240000000E803000000006400000000000A0055
:10025000000000000100000000002C76D888DC6758
:100260004F0823DFC1DFAE59E1B1B796E5E3E453B0
:10027000C63AE651997696E8E6C28426EB898C9BCD
:1002800062ED407C6FFCEFBC9C9F40F2BAA56FA56D
:10029000F490055A2AF75C936B6CF9676DC11BFCEF
:1002A000E0E40D47FEF520E6B500D0ED902E03000A
:1002B000943577050080841E080000204E0A000057
:1002C00000C80C333333330F986E12831141EF8D16
:1002D0002114893BE65516CFFEE6DB18D1844B3856
:1002E0001BF77C1D901DA4BBE424203284725E2287
:1002F0008100C9F124ECA1E53D2704010040000084
:100300000000052405200200040000000000000099
:100310002100240027002A002D00300033000101B5
:100320000000040107010A01000022002500280046
:100330002B002E00310034000201000005010801ED
:100340000B01000020002300260029002C002F00B4
:100350003200000100000301060109010505050541
:10036000070508080808020202020A0A080804042D
:10037000040401010101010101010303030303035B
:100380000303040707070C0C0C0C0C0C0C0C0202EA
:10039000020206060606060606060B0B0B0B0B0BE7
:1003A0000B0B010210202008081020401020408074
:1003B0000201020108040201010204081020408029
:1003C00080402010080402018004020180402010B7
:1003D0000804020108040201010204081020408000
:1003E000010204081020408000000A0B02090C0DD5
:1003F0000E080703040100000000000000000000D8
:1004000000000000000000000000000000000000EC
:1004100000000000121110000000000000000000A9
:100420000000000000000000000000000000C828DC
:10043000AB2F11241FBECFEFD1E2DEBFCDBF00E056
:100440000CBF15E0A0E0B2E0E6E7F5E700E00BBF87
:1004500002C007900D92A238B107D9F729E0A2E8AF
:10046000B5E001C01D92A43BB207E1F712E0C8E17C
:10047000D2E000E006C021970109802FFE010E9412
:100480005835C731D10780E00807A9F70E945229E3
:100490000C94A93A0C940000FC01A281B3819D0147
:1004A000240F351F33832283FB01460F571FE417A8
:1004B000F50711F481E0089581918D93F8CFDC0167
:1004C0001296ED91FC9113974E0F5F1F13965C935C
:1004D0004E931297DB01672B21F481E008958191FF
:1004E0008D93E417F507D9F7F8CFAF92BF92CF926B
:1004F000DF92EF92FF920F931F93CF93DF936C01E4
:100500007B018B01040F151FEB015E01AE18BF08C4
:10051000C017D10759F06991D601ED91FC91019076
:10052000F081E02DC6011995892B79F7C501DF917E
:10053000CF911F910F91FF90EF90DF90CF90BF90E0
:10054000AF900895FC0144815581608171818FE1F4
:1005500098E00C947502FC01538D448D252F30E0FA
:10056000842F90E0821B930B541710F0CF960895C0
:1005700001970895FC01918D828D981761F0A28DED
:10058000AE0FBF2FB11D5D968C91928D9F5F9F73B3
:10059000928F90E008958FEF9FEF0895FC01918D69
:1005A000828D981731F0828DE80FF11D858D90E0D6
:1005B00008958FEF9FEF0895FC01918D228D892F73
:1005C00090E0805C9F4F821B91098F73992708955B
:1005D0008FE198E00E94DC0221E0892B09F420E001
:1005E000822F0895FC01A48DA80FB92FB11DA35A25
:1005F000BF4F2C91848D90E001968F739927848F43
:10060000A689B7892C93A089B1898C918370806465
:100610008C93938D848D981306C00288F389E02D06
:1006200080818F7D80830895EF92FF920F931F93B7
:10063000CF93DF93EC0181E0888F9B8D8C8D981395
:100640001AC0E889F989808185FF15C09FB7F894A1
:10065000EE89FF896083E889F989808183708064ED
:1006600080839FBF81E090E0DF91CF911F910F9138
:10067000FF90EF900895F62E0B8D10E00F5F1F4F47
:100680000F731127E02E8C8D8E110CC00FB607FC56
:10069000FACFE889F989808185FFF5CFCE010E94E4
:1006A000F202F1CFEB8DEC0FFD2FF11DE35AFF4F5E
:1006B000F0829FB7F8940B8FEA89FB898081806272
:1006C000CFCFCF93DF93EC01888D8823B9F0AA892F
:1006D000BB89E889F9898C9185FD03C0808186FDFD
:1006E0000DC00FB607FCF7CF8C9185FFF2CF80814C
:1006F00085FFEDCFCE010E94F202E9CFDF91CF91CD
:1007000008958150823108F05AC0E82FF0E0882720
:10071000E357FC4F8F4F0C945835AD03B1039F0343
:10072000A503A903DF03B403BA03BE03C403C803CC
:10073000CC03D203D603DF03DA03E003E4038091A2
:1007400080008F77809380000895809180008F7D56
:10075000F9CF80918000877FF5CF84B58F7784BDF6
:10076000089584B58F7DFBCF8091B0008F77809303
:10077000B00008958091B0008F7DF9CF80919000F6
:100780008F77809390000895809190008F7DF9CFAE
:1007900080919000877FF5CF8091A0008F77809324
:1007A000A00008958091A0008F7DF9CF8091A000D6
:1007B000877FF5CF809120018F7780932001089566
:1007C000809120018F7DF9CF80912001877FF5CF27
:1007D000CF93DF93282F30E0F901E851FC4F84914B
:1007E000F901EE55FC4FD491F901E45AFC4FC49144
:1007F000CC23A1F081110E948103EC2FF0E0EE0FD9
:10080000FF1FEE5BFC4FA591B491EC91ED2381E0CD
:1008100090E009F480E0DF91CF91089580E090E0CE
:10082000FACF1F93CF93DF93282F30E0F901E851DF
:10083000FC4F8491F901EE55FC4FD491F901E45A33
:10084000FC4FC491CC23A9F0162F81110E94810383
:10085000EC2FF0E0EE0FFF1FE85DFC4FA591B49187
:100860008FB7F894EC91111108C0D095DE23DC937A
:100870008FBFDF91CF911F910895DE2BF8CFCF93DB
:10088000DF93CEEBD8E060E08C810E94110460E041
:100890008E81DF91CF910C941104CF93DF93D82FE9
:1008A000C62F60E08C2F0E94110487E090E0019732
:1008B000F1F7DEBD00000DB407FEFDCFDEB561E04F
:1008C0008C2F0E9411048BE490E00197F1F78D2F9B
:1008D000DF91CF910895CF93DF9390E0FC01EE5527
:1008E000FC4F2491845A9C4FFC0184918823D1F0C1
:1008F00090E0880F991FFC01E25FFC4FA591B49135
:10090000FC01E85DFC4FC591D49161110EC09FB709
:10091000F8948C91E22FE0958E238C932881E2232A
:10092000E8839FBFDF91CF9108958FB7F894EC9142
:10093000E22BEC938FBFF6CF3FB7F8948091FE0681
:100940009091FF06A0910007B091010726B5A89BE2
:1009500005C02F3F19F00196A11DB11D3FBFBA2F51
:10096000A92F982F8827BC01CD01620F711D811D11
:10097000911D42E0660F771F881F991F4A95D1F796
:1009800008952FB7F8946091FA067091FB06809154
:10099000FC069091FD062FBF0895CF93DF93DB01F6
:1009A000EA01FC01EB50F94F40815CE0589F900157
:1009B000599F300D112447FF1CC011961C921E92A6
:1009C00080818F5F80838081A901480F511D87FD41
:1009D0005A9557FF03C080818C30ACF08D919C916B
:1009E0001197049680349C4938F18D919C9104961E
:1009F00025C08081A901480F511D87FD5A9557FFD9
:100A0000DFCF8081DDCF8D919C914081240F311DFE
:100A100047FD3A95D901AA0FBB1FA20FB31FAB59CF
:100A2000B94F11962D913C91820F931F9983888322
:100A30008081DF91CF91089580E49CE99983888338
:100A40008FEF8083F6CF20911B06260F3327331FAD
:100A500021323105ECF420913F06FC0190E080E06A
:100A6000243069F082E00895A0911B062191AC0129
:100A700045505A4FA40FB52FB11D2C9301968617E0
:100A800098F380911B06680F60931B0680E0089521
:100A900081E0089508958FEF9FEF08958FEF9FEF06
:100AA00008958091F40590E09195819591090895BC
:100AB000CF93DF93CB01EA01642F0E942305CE017F
:100AC000DF91CF910895CF93DF931F92CDB7DEB71B
:100AD000698361E0CE0101960E94230581E090E0E8
:100AE0000F90DF91CF91089590E080E008950F93EB
:100AF0001F93CF93DF93EC018A014115510569F1F2
:100B0000E881F981309749F12E813F81CA01820F36
:100B1000931F8217930728F02C813D8128173907EE
:100B200070F488859985009711F48AE992E0998795
:100B3000888780E0DF91CF911F910F910895CE01BA
:100B4000199581110AC0288539852115310511F4BF
:100B500026EA32E039872887EDCF8E819F81080F02
:100B6000191F1F830E8381E0E5CF9F92AF92BF9242
:100B7000CF92DF92EF92FF920F931F93CF93DF9369
:100B800000D000D01F921F92CDB7DEB75C01FB01F1
:100B9000868597858430910529F50588F689E02DAD
:100BA000308121819281838139832A839B838C8345
:100BB00044E050E0BE016F5F7F4FC5010E947705A2
:100BC00028960FB6F894DEBF0FBECDBFDF91CF9150
:100BD0001F910F91FF90EF90DF90CF90BF90AF905B
:100BE0009F900895089709F061C0A589B689EC9196
:100BF00011969C9011971296CC9012971396DC90B8
:100C000013971496EC9014971596FC9015971696DA
:100C10001C9116971796FC91E9832E2F392DA6016A
:100C2000B701812F9F2F08E00E947B352A832E2F4A
:100C3000392DA601B701812F9F2F00E10E947B353E
:100C40002B832E2F392DA601B701812F9F2F08E16D
:100C50000E947B352C832E2F392DA601B701812FC1
:100C60009F2F00E20E947B352D832E2F392DA60168
:100C7000B701812F9F2F08E20E947B352E832E2FF4
:100C8000392DA601B701812F9F2F00E30E947B35EC
:100C90002F832E2F392DA601B701812F9F2F08E317
:100CA0000E947B35288748E050E084CFF50180859D
:100CB0009185009711F48FEA92E0F5019187808782
:100CC00080E07ECF2F923F924F925F926F927F9201
:100CD0008F929F92AF92BF92CF92DF92EF92FF924C
:100CE0000F931F93CF93DF9300D000D000D01F92BB
:100CF000CDB7DEB73C01480159016A017B0198017B
:100D0000A501B601C701AFE7FE0131961F010E94A0
:100D10009F3509F000F5098341E050E0B101C301BE
:100D20000E9477052A960FB6F894DEBF0FBECDBF9E
:100D3000DF91CF911F910F91FF90EF90DF90CF90B7
:100D4000BF90AF909F908F907F906F905F904F90EB
:100D50003F902F90089500E20E947B35522E052D82
:100D6000132F9A01482CE89447F8D501C401F7E005
:100D7000B695A79597958795FA95D1F7B10150E06B
:100D800040E00097A105B10561F4011511052105A9
:100D9000310539F4D101A40FB51F4C924F5F5F4F5D
:100DA000BDCF4F5F5F4F689447F8FB014192BF0191
:100DB000482EE89447F8E7E0B695A795979587956C
:100DC000EA95D1F744305105E1F6011511052105E9
:100DD000310501F3852D82958077482A93E0369579
:100DE0002795179507959A95D1F7DE011596AD01D0
:100DF00042195309011511052105310559F2842DB8
:100E000080688D93402EE89447F887E036952795C3
:100E1000179507958A95D1F7EACF5F926F927F92E7
:100E20008F929F92AF92BF92CF92DF92EF92FF92FA
:100E30000F931F93CF93DF937C01FB0122892F70C7
:100E4000868597852230E1F58130910599F40588F2
:100E5000F689E02D8081682E712C912C812CA12C9B
:100E6000B12C650183019401A501B601C7010E945F
:100E70006206AFC08230910539F40588F689E02D0D
:100E8000808191813C01E9CF8430910551F405883E
:100E9000F689E02D80819181A281B3813C014D01D1
:100EA000DECF089709F08AC025893689F90160806C
:100EB000718082809380A480B580C680D780D2CF95
:100EC00081309105C9F50588F689E02DC0811C2F78
:100ED000110F110BF12FB12EC12ED12ED12FE12FD9
:100EE000233009F086C02C2F312F4F2F5B2DB601F8
:100EF0008D2F9E2F01E00E946035022F532E3A0164
:100F00004B01A82EB92F2C2F312F4F2F5B2DB6015F
:100F10008D2F9E2FA0E00E949F3544F400955094A1
:100F20006094709480949094A094B095152D930142
:100F3000A4016A2D7B2F9ACF8230910571F4058828
:100F4000F689E02D1181C081F12FFF0FFF0BBF2E1D
:100F5000CF2EDF2EDF2FEF2FC3CF84309105A1F4EA
:100F60000588F689E02D80819181A281B381C82F07
:100F7000192FFA2FBB2EBB0F880B982FDC01C82E20
:100F8000D82ED82FE82FACCF0897C1F4A589B68901
:100F9000CC9111961C9111971296FC911297139671
:100FA000BC9013971496CC9014971596DC901597D7
:100FB0001696DC9116971796EC9192CFF7018085E3
:100FC0009185009711F48FEA92E0F701918780876D
:100FD00080E0DF91CF911F910F91FF90EF90DF9014
:100FE000CF90BF90AF909F908F907F906F905F90C9
:100FF00008950C2F2F2F3B2DA6016D2F7E2F36CF5E
:10100000CF92DF92EF92FF920F931F93CF93DF93D4
:10101000EC016B017A018A0120E030E040E050E011
:1010200060E070E00E946206882369F0A701B601C3
:10103000CE01DF91CF911F910F91FF90EF90DF9044
:10104000CF900C94770580E0DF91CF911F910F91A5
:10105000FF90EF90DF90CF9008958F929F92AF9284
:10106000BF92CF92DF92EF92FF920F931F93CF9395
:10107000DF93EC01DB015296EC91EF70EC3080F5E0
:10108000F0E08827E95BF74F8F4F0C9458358608BE
:10109000860886088608530889086D086D086D085B
:1010A0006D0870086D08A5E0B0E0FB0184849584AC
:1010B000940140E050E060E070E080E090E003E008
:1010C0000E94603589019A014D010A2B1929AB0153
:1010D000BC01CE010E9462060CC0A2E0B0E0E5CFE8
:1010E00088859985009711F481EC92E0998788872B
:1010F00080E0DF91CF911F910F91FF90EF90DF90F3
:10110000CF90BF90AF909F908F900895B0E0A0E0F7
:10111000CCCFA1E0B0E0C9CFCF93DF93EC018C81BD
:101120009D81892B61F48E819F81009711F484ED5C
:1011300092E09F838E8380E0DF91CF910895E881D4
:10114000F98141E050E0CE01199581110AC02E814C
:101150003F812115310511F426EA32E03F832E83C9
:10116000EBCF2C813D81215031093D832C83E4CF8D
:101170003F924F925F926F927F928F929F92AF9227
:10118000BF92CF92DF92EF92FF920F931F93CF9374
:10119000DF931F92CDB7DEB74C017B01D12CC12C60
:1011A000312C412C512C612C712CA12CB12C10E034
:1011B000BE016F5F7F4FC4010E948C08E82F882317
:1011C00009F442C0F9812F2F2F7730E040E050E042
:1011D00060E070E080E090E00C2D0E946035322AE3
:1011E000432A542A652A762AA72AB82A192BF7FDFA
:1011F00017C0D7013C9211964C92119712965C92AF
:10120000129713966C92139714967C9214971596D6
:10121000AC9215971696BC92169717961C9314C00D
:1012200087E0C80ED11CA6E4CA16D10409F6F40161
:1012300086819781009711F482EE92E0D40117968F
:101240009C938E931697E0E08E2F0F90DF91CF91B5
:101250001F910F91FF90EF90DF90CF90BF90AF90D4
:101260009F908F907F906F905F904F903F900895E8
:101270008F929F92AF92BF92CF92DF92EF92FF92A6
:101280000F931F93CF93DF931F92CDB7DEB78C01DF
:101290005B017A01BE016F5F7F4F0E948C08882E30
:1012A00081111CC0F80184819581892B11F0812C5A
:1012B00006C0E114F104D9F381E0F7018083882DA1
:1012C0000F90DF91CF911F910F91FF90EF90DF90E2
:1012D000CF90BF90AF909F908F900895898187FDA8
:1012E0000AC0C82ED12CF12CE12CF501C082D1828C
:1012F000E282F382E4CF8F77C82ED12CF12CE12C3F
:1013000087E0982EBE016F5F7F4FC8010E948C0856
:10131000882369F29981492F4F77FFE1F915F8F495
:101320002EE32915D0F02FEF81E0442329F0F7FEBA
:1013300002C081E0291380E08170EFE3E91510F02D
:1013400081111CC0F80186819781009711F482EE0B
:1013500092E0F80197838683AACF21E0E5CF50E0A1
:1013600070E060E0092C04C0440F551F661F771F12
:101370000A94D2F7C42AD52AE62AF72AF7E09F0E64
:1013800097FDC0CF23E29212B0CF907709F4ADCF92
:10139000D9CF8F929F92AF92BF92EF92FF920F930D
:1013A0001F93CF93DF9300D01F92CDB7DEB78C0190
:1013B0007B0150E040E0BE016F5F7F4F0E94380923
:1013C000882301F198E0F801D70101900D929A95D8
:1013D000E1F749815A816B817C81F7018480958096
:1013E000B12CA12C84169506A606B706D0F4F801F8
:1013F00086819781009711F482EF92E0F80197833C
:10140000868380E00F900F900F900F90DF91CF9127
:101410001F910F91FF90EF90BF90AF909F908F9092
:10142000089555834483F80124813581241B350BAD
:1014300035832483E7CF8F929F92AF92BF92EF9232
:10144000FF920F931F93CF93DF9300D01F92CDB7DE
:10145000DEB78B017A01F9011082FB011182108243
:10146000FA011082118212821382A901BE016F5FFC
:101470007F4F0E9438098823B9F049815A816B81D6
:101480007C814A015B0193E0B694A794979487947A
:101490009A95D1F7F70180829182A282B382477038
:1014A0005527F801518340830F900F900F900F90B4
:1014B000DF91CF911F910F91FF90EF90BF90AF9070
:1014C0009F908F900895EF92FF920F931F93CF9369
:1014D000DF93CDB7DEB760970FB6F894DEBF0FBECF
:1014E000CDBF8C017A0181E0452BA1F0611571051A
:1014F00061F5D8018D919C918F55924031F1F1E1C8
:10150000EF16F104A0F4A701BE016F5F7F4FC80181
:101510000E94630A60960FB6F894DEBF0FBECDBF7F
:10152000DF91CF911F910F91FF90EF90089540E1CF
:1015300050E0BE016F5F7F4FC8010E94630A88239D
:1015400049F3E0E1EE1AF108DACFD80114968D9153
:101550009C9115978E159F0560F416968D919C9120
:10156000009711F484ED92E0F8019783868380E080
:10157000D1CFED91FC91A701C8011995F801811116
:101580000DC0268137812115310511F426EA32E09C
:10159000D80117963C932E931697BCCF24813581A2
:1015A0002E193F0935832483B5CF0F931F93CF9313
:1015B000DF938C01EB014C815D814115510579F47C
:1015C0008A819B81F801938382838E819F81978397
:1015D000868381E0DF91CF911F910F91089570E094
:1015E00060E0CE010E94630A8111EACFF3CF0F932E
:1015F0001F93CF93DF9300D01F92CDB7DEB78C013E
:101600006130710531F178F06230710551F165306A
:10161000710509F448C0FC01868197810097F1F5B6
:1016200089E193E03BC041E050E0BE016F5F7F4F36
:10163000C8010E94630A882319F0998197FDF3CFAE
:101640000F900F900F900F90DF91CF911F910F91FE
:10165000089548E050E070E060E0C8010E94630A2D
:10166000EFCF50E040E0BE016F5F7F4F0E9438092E
:10167000882331F349815A816B817C81DB01CA0166
:10168000AA27BB27481759076A077B0721F3F801E8
:1016900086819781009711F48AE093E0F80197839F
:1016A000868380E0CDCF44E050E0D5CF9B01BA01E6
:1016B000FA01468557854430510571F4A589B689EC
:1016C000109751F0009751F0ED91FC911197AD01F9
:1016D0004E5F5F4F309771F481E008952115310519
:1016E000D9F3ED91FC9111973097B1F3AD014E5FB5
:1016F0005F4FC9011994CF92DF92EF92FF92CF937F
:10170000DF93DC0114968D919C91159701961596A7
:101710009C938E931497CD91DC91119728853985F0
:1017200082179307B8F015961C921E92149717967D
:101730001C921E9216971B961C921E921A9719962F
:101740001C921E921897DF91CF91FF90EF90DF903F
:10175000CF90089516962D913C911797C901880F47
:10176000991F880F991FE881F981E80FF91FC5902B
:10177000D590E590F49077276F2D5E2D4D2D83E069
:10178000C822DD2481E090E002C0880F991FCA942E
:10179000E2F7820F931F17969C938E931697842FD0
:1017A000807321E030E011F030E020E018968D9158
:1017B0009C911997820F931F19969C938E9318975B
:1017C0004F704850550B21E030E04230510510F089
:1017D00030E020E01A968D919C911B97820F931F09
:1017E0001B969C938E931A97AECF4F925F926F92F7
:1017F0007F928F929F92AF92BF92CF92DF92EF92A1
:10180000FF920F931F93CF93DF9300D000D0CDB7FB
:10181000DEB7DC014D915C9111975E834D83149688
:101820002D913C911597FA018085918528173907EC
:1018300008F075C12081318116968D919C91179782
:10184000880F991F880F991FF901E80FF91FC5909C
:10185000D590E590F49077276F2D5E2D4D2D49831F
:101860005A836B837C8352964C935297B701A6019F
:10187000437055276627772726013701F2E07694D3
:10188000679457944794FA95D1F741305105610513
:10189000710509F45FC008F440C0FC0134968C0166
:1018A000085F1F4F423051056105710509F4CDC035
:1018B000E20FF31F4591559165917491F901E00F85
:1018C000F11F85909590A590B490FC013C96E20F95
:1018D000F31FC590D590E590F490FC017096E20F4F
:1018E000F31F059115912591349151961C930E93F8
:1018F0005097F201EF73FF27052F162F272F33275D
:10190000C80156E0880F991F5A95E1F78E2B9F2B3F
:101910001D969C938E931C9718C081E090E0519681
:101920009C938E9350975FE3452255241D965C92BD
:101930004E921C974F2D4F708E2C912C6CE1F6948B
:10194000E794D794C7946A95D1F71F96DC92CE920C
:101950001E9738C0FC013496E20FF31F05911591D4
:1019600025913491C7019F7051969C938E93509707
:101970006FE346225524480159018CE1B694A7949F
:10198000979487948A95D1F7C40146E0880F991FF0
:101990004A95E1F7842995291D969C938E931C976F
:1019A0005CE1F694E794D794C7945A95D1F74C2DFF
:1019B00048015901AA24BB24C9019F701F969C931A
:1019C0008E931E9712968D919C911397009709F014
:1019D0006DC054961C921E92539758961C921E925C
:1019E000579752968C9152978F708850990B029707
:1019F00008F090C01A968D919C911B97880F991FA3
:101A0000ED81FE8122813381F901E80FF91F808188
:101A100091815A969C938E93599781E026960FB6A2
:101A2000F894DEBF0FBECDBFDF91CF911F910F9114
:101A3000FF90EF90DF90CF90BF90AF909F908F90EE
:101A40007F906F905F904F900895E20FF31F459144
:101A5000559165917491F901E00FF11F8590959072
:101A6000A590B490FC013C96E20FF31F05911591EF
:101A7000259134915196FC92EE9250978FE3482233
:101A80005524C52ED62EE72EFF24C601F6E0880F7A
:101A9000991FFA95E1F7842995291D969C938E93B9
:101AA0001C971F961C930E931E978CCF880E991E21
:101AB00054969C928E9253974423C1F0C401841B88
:101AC000910947FD939558969C938E9357978981DA
:101AD000807C8038D1F481149104B9F0F4018081C4
:101AE000918156969C938E9355977BCF8981807375
:101AF000803231F4998196FD03C0CD014096E3CF49
:101B000058961C921E925797E2CF56969C928E92B0
:101B1000559767CF5A961C921E9259977ECF80E0B8
:101B20007DCFFC01128E138E148E158E168E178E9D
:101B300010A211A212A213A214A215A216A217A2F9
:101B400010A611A612A613A614A615A616A617A6C9
:101B500010AA11AA12AA13AA14AA15AA80E090E04A
:101B6000A0E8BFE386AB97ABA0AFB1AF13AE12AEA8
:101B700008958F929F92AF92BF92CF92DF92EF9291
:101B8000FF920F931F93CF93DF93EC016A017B01C8
:101B90000A811B812EA93FA948AD59ADCB01B601E1
:101BA0000E94563320E030E0A9010E94F03287FF06
:101BB00066C061E0802F0E946B0460E0802F0E946D
:101BC00011048A8C9B8CAC8CBD8C20E030E0A90188
:101BD000C501B4010E9453351816B4F52AE037ED5B
:101BE00043E25CE3C501B4010E94F03287FF36C0D6
:101BF00020E030E0A901C701B6010E94F03287FF62
:101C00003AC060E070E080E89FE36AAB7BAB8CABEE
:101C10009DAB0E94243588810E9411048C810E9412
:101C2000E803BC01990F880B990B0E94F7322AA98F
:101C30003BA94CA95DA90E94F03281110FC0CEAA28
:101C4000DFAAE8AEF9AE0AC02AE037ED43E25CEB6A
:101C5000C501B4010E945335181654F2DF91CF919B
:101C60001F910F91FF90EF90DF90CF90BF90AF90BA
:101C70009F908F90089560E070E0CB01C6CF20E088
:101C800030E0A901C701B6010E94533518160CF5C2
:101C900020E030E04AE251E4C701B6010E94563329
:101CA0000E941D35EB0161E0802F0E946B0420979C
:101CB000C1F460E0802FDF91CF911F910F91FF90D1
:101CC000EF90DF90CF90BF90AF909F908F900C944B
:101CD0001104C701B601905820E030E04AE251E417
:101CE000DDCFCF3FD10511F461E0E4CFF801FF274C
:101CF000E851FC4FE491E150E23108F0B0C0F0E06F
:101D00008827EA57F14F8F4F0C945835980E9D0E47
:101D1000A20EAC0EB60E2F0FC00EC80ED00EDA0EED
:101D2000E40EEE0EFD0E070F2F0F110F1B0F250FE8
:101D300084B5806884BDC7BD91CF84B5806284BD01
:101D4000C8BD8CCF80918000806880938000D09344
:101D50008900C093880082CF809180008062809348
:101D60008000D0938B00C0938A0078CF8091800050
:101D7000886080938000D0938D00C0938C006ECFDC
:101D80008091B00080688093B000C093B30066CFAC
:101D90008091B00080628093B000C093B4005ECFA9
:101DA00080919000806880939000D0939900C093B8
:101DB000980054CF80919000806280939000D093DF
:101DC0009B00C0939A004ACF8091900088608093D6
:101DD0009000D0939D00C0939C0040CF8091A000C4
:101DE00080688093A0008091A0008F7B8093A000EA
:101DF000D093A900C093A80031CF8091A000806249
:101E00008093A000D093AB00C093AA0027CF80910D
:101E1000A00088608093A000D093AD00C093AC0078
:101E20001DCF80912001806880932001D0932901EB
:101E3000C093280113CF80912001806280932001FC
:101E4000D0932B01C0932A0109CF80912001886093
:101E500080932001D0932D01C0932C01FFCEC03878
:101E6000D1050CF041CF25CF8F929F92AF92BF92B8
:101E70000F931F93CF93DF93CDB7DEB7A1970FB624
:101E8000F894DEBF0FBECDBF19A2423008F44AE07D
:101E90008E010F5D1F4F842E912CB12CA12CA5011A
:101EA00094010E941C34E62FB901CA01EA3044F5BE
:101EB000E05DD801EE938D01232B242B252B79F7A0
:101EC00090E080E0109769F0FD0101900020E9F7B3
:101ED0003197AF014A1B5B0BBD018FE198E00E9477
:101EE0007502A1960FB6F894DEBF0FBECDBFDF918D
:101EF000CF911F910F91BF90AF909F908F900895B9
:101F0000E95CD7CFBC01990F880B990B4AE00C9480
:101F1000340FFC0101900020E9F73197AF01481B15
:101F2000590BBC018FE198E00C947502EF92FF927F
:101F30000F931F93CF93DF937C018B01EA018CE019
:101F400095E00E94890FC7010E94820F8BE293E007
:101F50000E94890FC8010E94820F8BE293E00E94C9
:101F6000890FCE010E94A2028FE095E0DF91CF9110
:101F70001F910F91FF90EF900C94890F0F931F9377
:101F8000CF93DF93EC0188819981009759F02A81E2
:101F90003B812617370730F081E0DF91CF911F9109
:101FA0000F9108958B016F5F7F4F0E94D03600978D
:101FB00059F0998388831B830A832C813D81232BCD
:101FC00059F7FC011082E8CF80E0E7CFEF92FF9253
:101FD0000F931F93CF93DF936115710541F480E058
:101FE000DF91CF911F910F91FF90EF9008954115D0
:101FF0005105B1F07B01EC010C811D81040F151F0F
:10200000B8010E94BE0F882351F3288139818C8149
:102010009D81B701820F931F0E94CC371D830C83D3
:1020200081E0DECFCF93DF93EC0188819981009727
:1020300011F00E944736198218821D821C821B8271
:102040001A82DF91CF910895CF93DF93EC01FB01CA
:1020500044815581608171810E94E60F811103C026
:10206000CE010E941210CE01DF91CF910895EF9220
:10207000FF920F931F93CF93DF93EC017B018A01B3
:10208000BA010E94BE0F81110BC0CE010E94121036
:10209000CE01DF91CF911F910F91FF90EF900895A6
:1020A0001D830C83B701888199810E94CC37F0CFC2
:1020B000EF92FF920F931F93CF93DF93CDB7DEB7CD
:1020C00062970FB6F894DEBF0FBECDBF8C01CB0177
:1020D000F8011182108213821282158214824AE062
:1020E0009E012F5F3F4F7901B9010E944D30F701EA
:1020F00001900020E9F73197AF014E195F09B70150
:10210000C8010E94371062960FB6F894DEBF0FBE6A
:10211000CDBFDF91CF911F910F91FF90EF90089568
:10212000FB01DC0111961C921E9213961C921E92CA
:10213000129715961C921E9214978617970749F0CE
:10214000608171816115710521F0448155810C9484
:1021500037100895FC0111821082138212821582B9
:102160001482FB0101900020E9F73197AF01461B73
:10217000570B0C943710FC0180819181009711F06E
:102180000C9447360895CF93DF9300D000D0CDB79D
:10219000DEB78091BE080E94E803892B99F48091F4
:1021A000C0080E94E803892B69F41092C9081092B4
:1021B000C80826960FB6F894DEBF0FBECDBFDF91DC
:1021C000CF9108958091BE080E94E803019761F1C4
:1021D0008091BE080E94E803892BB9F18091BE0866
:1021E0000E94E803019729F78091C0080E94E80344
:1021F0000197F9F61092C9081092C8080E943F048E
:102200006DE273E0CE0101960E94AA10AE014F5F0D
:102210005F4F6BE070E090E080E00E94960FCE018F
:1022200001960E94BB10C5CF8091C0080E94E803B0
:10223000892B71F68091C6089091C708019711F01B
:102240000E943F048FEF9FEF10C08091C0080E9452
:10225000E803019719F68091C6089091C708019686
:1022600011F00E943F0481E090E09093C9088093B0
:10227000C8089FCF0F931F93CF93DF9300D000D058
:10228000CDB7DEB78C0169E575E0CE0101960E94FD
:10229000AA10AE014F5F5F4FB80181E090E00E944D
:1022A000960FCE0101960E94BB1026960FB6F894A9
:1022B000DEBF0FBECDBFDF91CF911F910F9108956B
:1022C000DF92EF92FF920F931F93CF93DF93CDB7DF
:1022D000DEB762970FB6F894DEBF0FBECDBF8C019C
:1022E000FC01E080F180B70180E10E944D04B7015C
:1022F00080E00E944D04D82EF5EA8F17C1F380E1EB
:10230000D81218C0B70180E00E944D04182FB70101
:1023100080E00E944D04912F62960FB6F894DEBFC4
:102320000FBECDBFDF91CF911F910F91FF90EF9026
:10233000DF900895F80160817181CE0107960E94B7
:10234000581066E573E0CE0101960E94AA10BE0106
:10235000695F7F4FCE0101960E9424107C014BE003
:1023600050E060E673E00E94E60F811103C0C701F0
:102370000E9412108E01035F1F4F4AE0B8018D2D9D
:1023800090E00E944D30F80101900020E9F731976C
:10239000AF01401B510BB801C7010E94E60F81112C
:1023A00003C0C7010E94121041E050E064E374E0F2
:1023B000C7010E94E60F811103C0C7010E941210DD
:1023C000B701C8010E949010A8016AE070E081E0A6
:1023D00090E00E94960FC8010E94BB10CE010196AA
:1023E0000E94BB10CE0107960E94BB108FEF9FEF9B
:1023F00093CF2F923F924F925F926F927F928F92E4
:102400009F92AF92BF92CF92DF92EF92FF920F9383
:102410001F93CF93DF9300D000D000D01F92CDB791
:10242000DEB79A8789870E94C104A985BA85569626
:102430000D911D912D913C915997601B710B820B51
:10244000930BFD01628B738B848B958B0E94C1046F
:10245000A985BA8556966D937D938D939C935997D4
:1024600052966D917D918D919C9155970E94F73276
:102470004B015C01AC019B0160E070E08AE794E4F1
:102480000E94AB349B01AC016BEA7AEA8AE096E4E5
:102490000E94AB3423E333E343E95FE30E94563306
:1024A0002B013C0189859A85CC960E9460118C0194
:1024B000E985FA8526AC37ACBC0162197309072E91
:1024C000000C880B990B0E94F7326B017C0120E015
:1024D00030E0A9010E94533518160CF4D4C0C7018E
:1024E000B6019058A30192010E94AB3420E030E085
:1024F00040E85FE30E94533518167CF5B801012EC1
:10250000000C880B990B0E94F7322B013C0120E054
:1025100030E0A901C701B6010E94533518160CF02E
:10252000B5C06627772762197309072E000C880B40
:10253000990B0E94F7326B017C01A301920160E0CC
:1025400070EF8FE795E40E943E349B01AC01C70118
:10255000B6010E943E346B017C01A985BA85DF96E5
:102560001C930E93DE97A7019601C701B6010E9446
:102570003F3420ED3FE049E450E40E94563320E030
:1025800030E040E859E30E945633E985FA85E05C83
:10259000FF4F20813181428153810E94563320E0D8
:1025A00030E04AE754E40E945633A50194010E94AA
:1025B000AB342FE832EC45E75EE30E94563320E06F
:1025C00030E040E05FE30E9456336B017C01E98517
:1025D000FA85C28ED38EE48EF58E20E030E040E0A6
:1025E00050EC0E94F03287FD0AC020E030E040E06D
:1025F00050E4C701B6010E945335181654F4E9851A
:10260000FA8582A593A5A4A5B5A5828F938FA48FE3
:10261000B58FA985BA855E968D909D90AD90BC9042
:1026200091975A964D905D906D907C905D97A30127
:102630009201C501B4010E943E346B017C01A98561
:10264000BA8592968D919D910D90BC91A02D898314
:102650009A83AB83BC8320E030E0A901BC01CD01AB
:102660000E94533511E0181624F520E030E040ECCC
:1026700051E469817A818B819C810E94F032181625
:1026800024F510E022C0C701B6012CCFB101330CF4
:10269000880B990B0E94F7329B01AC0160E070EF50
:1026A0008FE795E40E943E34A30192010E943F34DB
:1026B00052CF20E030E040EC51EC69817A818B818F
:1026C0009C810E94533587FDDCCFE985FA856289BC
:1026D0007389848995890E94F7326D837E838F8305
:1026E00098871123D1F09B01AC01C701B6010E946C
:1026F000563320E030E04AE754E40E94AB342981AD
:102700003A814B815C810E943F34A985BA859296BB
:102710006D937D938D939C93959720E030E0A90174
:10272000C301B2010E94533518168CF42FE632E132
:1027300043E85AE3C301B2010E94F03287FF11C09F
:10274000E985FA8512A213A214A215A20AC02FE6E7
:1027500032E143E85AEBC301B2010E945335181627
:102760007CF320E030E0A901C501B4010E9453359B
:1027700018169CF42AE037ED43E25CE3C501B4018E
:102780000E94F03287FF13C0A985BA8592961D92E8
:102790001D921D921C9295970AC02AE037ED43E2E4
:1027A0005CEBC501B4010E94533518166CF3A70108
:1027B0009601E985FA8566A577A580A991A90E9469
:1027C0003E3420E030E04AE754E40E9456332D8145
:1027D0003E814F8158850E94AB344B015C01A98535
:1027E000BA8596968D929D92AD92BC92999792964B
:1027F0002D913D914D915C9195971A966D917D919A
:102800008D919C911D970E9456332B013C01E985C7
:10281000FA852681378140855185C701B6010E941E
:1028200056339B01AC01C301B2010E943F342B011E
:102830003C01A985BA851E962D913D914D915C91E3
:102840005197C501B4010E9456339B01AC01C301ED
:10285000B2010E943F34AB01BC0189859A850E9478
:10286000B90DE985FA85C6A6D7A6E0AAF1AA828D98
:10287000938DA48DB58D82A793A7A4A7B5A72A96FB
:102880000FB6F894DEBF0FBECDBFDF91CF911F9181
:102890000F91FF90EF90DF90CF90BF90AF909F90FF
:1028A0008F907F906F905F904F903F902F90089502
:1028B0008F929F92AF92BF92CF92DF92EF92FF9250
:1028C0000F931F93CF93DF93EC01142F79836883C9
:1028D00061E084E30E946B0461E083E30E946B0487
:1028E00060E082E30E946B0461E088810E946B04D7
:1028F00061E088810E9411048CB5837F8CBD8CB50A
:102900008C7F81608CBD8DB58E7F8DBD0FB7F894A7
:102910008091F305811127C0E1E9F3E08491E7EDAF
:10292000F3E09491E82FF0E0EE0FFF1FE25FFC4F21
:10293000A591B491EC91E92321F461E085E30E9433
:10294000110461E085E30E946B048CB580618CBD4D
:102950008CB580648CBD61E084E30E946B0461E00F
:1029600083E30E946B048091F3058F5F8093F305EE
:102970000FBF0E949C044B015C018BE4C82ED12C3C
:10298000E12CF12C0E949C04681979098A099B09A1
:10299000683E734081059105A8F321E0C21AD10871
:1029A000E108F10888EE880E83E0981EA11CB11C96
:1029B000C114D104E104F10429F7CE010E94601191
:1029C0009B838A83112341F080E090E0A0E8BFEB75
:1029D0008C839D83AE83BF83DF91CF911F910F9135
:1029E000FF90EF90DF90CF90BF90AF909F908F902F
:1029F00008951F93CF93DF9385ED8093BC00809162
:102A0000F7059091F805A091F905B091FA050796A0
:102A1000A11DB11D23E0B695A795979587952A9599
:102A2000D1F72091BC0024FD03C010923F0652C094
:102A30004091F7055091F8056091F9057091FA05FC
:102A4000452B462B472B69F30097A105B10541F0B3
:102A500025E32A95F1F700000197A109B109E1CF1B
:102A60008091F605C1E0C093F505882399F1D091D6
:102A7000B8001091BA008091BC008A7B8093BC00A2
:102A800060E084E10E94110460E085E10E9411048D
:102A900010923F06C09341061092400661E084E127
:102AA0000E94110461E085E10E9411048091B90047
:102AB0008E7F8093B9008091B9008D7F8093B9009B
:102AC00088E48093B80085E48093BC001093BA003A
:102AD000D093B800DF91CF911F910895FC013496F7
:102AE00027E1DF011D922A95E9F7FC0171836083DC
:102AF000538342830C94F50BCF93DF93CDB7DEB7AE
:102B00006B970FB6F894DEBF0FBECDBFFC01828974
:102B1000982F907C09F073C0982F9073B1F1903288
:102B200039F40788F08DE02D81E02081318142C0A9
:102B30009033B9F3903189F4A789B08D109769F07B
:102B400081E09C91911121C06B960FB6F894DEBF85
:102B50000FBECDBFDF91CF910895A081B1811496B2
:102B60002D913C91232B89F48F70863080F4A589B8
:102B7000B689868597858A0F9B1FA817B90711F418
:102B800081E0E2CF2D912223C1F380E0DDCF8630BA
:102B900021F40588F689E02DC7CF873031F4058808
:102BA000F689E02D81E09081CDCF8B3031F481E04A
:102BB00026853785232B49F7C7CF8850990B029775
:102BC00020F745895689618D728DCE0101960E944C
:102BD0006E158823A9F2CE0101960E947C158823E8
:102BE00009F4B2CFCE0101960E947B0BCE01019673
:102BF0000E94F50B8D819E81892B69F7C1CF90389A
:102C000021F481E025893689D5CF903409F0BDCFF4
:102C10008F708A3009F4BDCFA081B18116962D91B5
:102C20003C918BE02635380709F4B3CF81E0C2CF61
:102C30000F931F93CF93DF938C01EB01E881F98110
:102C400064817581DB01ED91FC9185919591A59150
:102C5000B491892F9A2FAB2FBB27807C9927AA2765
:102C6000BB27AE014E5F5F4F80389105A105B105CE
:102C700011F04A815B81C8010E946E152696F80109
:102C8000D08FC78BDF91CF911F910F910895EF9255
:102C9000FF920F931F93CF93DF93CDB7DEB7E697E5
:102CA0000FB6F894DEBF0FBECDBF7C01CE014C96AF
:102CB0000E946E158823C1F08EA58F708A3009F0AE
:102CC0004FC0E9A9FAA9008111810115110571F41C
:102CD000CE014C960E947B0BCE014C960E94F50BC8
:102CE00088A199A1892B41F781E022C0D801ED91FB
:102CF000FC910280F381E02DB801309731F0C701DB
:102D00001995811129C080E013C0CE0101960E945F
:102D1000181681111AC0F70120853185211531055A
:102D200011F42CE633E0D70119963C932E931897B3
:102D3000E6960FB6F894DEBF0FBECDBFDF91CF9100
:102D40001F910F91FF90EF900895BE016F5F7F4F2D
:102D5000C7010E943519D5CFF80104811581B5CF7F
:102D6000BE01645E7F4FC7010E9435198111B0CF4B
:102D7000CACF9F92AF92BF92CF92DF92EF92FF9213
:102D80000F931F93CF93DF93CDB7DEB7CD59D10902
:102D90000FB6F894DEBF0FBECDBF6EE773E0CE0175
:102DA00088569F4F0E94AA10C055DF4FE880F980D7
:102DB000C05BD0408CE492E0C258DF4F9983888397
:102DC000CE57D040CE0101966C01C058DF4F998399
:102DD0008883C058D0408DE790E0CE57DF4F99836D
:102DE0008883C258D040CC57DF4F19821882C4580C
:102DF000D040CA57DF4F19821882C658D040F70119
:102E0000EE0FFF1FEC57F64F40815181F701EE0F97
:102E1000FF1FEA59F64F60817181CE0182589F4FA2
:102E20000E944716982E811136C081E090E00E94E2
:102E30003A1141E050E06BE273E0CE0188569F4FBB
:102E40000E94E60F41E050E067E873E0CE0188564B
:102E50009F4F0E94E60F992009F47AC0CE01885650
:102E60009F4F0E94A202CE0188569F4F0E94BB1026
:102E7000C356DF4F0FB6F894DEBF0FBECDBFDF9154
:102E8000CF911F910F91FF90EF90DF90CF90BF9067
:102E9000AF909F9008958E0108571F4FB701C8014A
:102EA0000E945810F8014481558160817181CE01E2
:102EB00088569F4F0E94E60FC8010E94BB1041E058
:102EC00050E060E873E0CE0188569F4F0E94E60F05
:102ED000760182E8A82E83E0B82ECC57DF4F2881F8
:102EE0003981C458D040C7018C199D0982179307B6
:102EF00008F09FCFF70181917F011F928F93BF92BE
:102F0000AF921F930F930E94D337B801CE018E5614
:102F10009F4F0E94AA10CA56DF4F48815981C65957
:102F2000D040CE56DF4F68817981C259D040CE0162
:102F300088569F4F0E94E60FCE018E569F4F0E94EB
:102F4000BB100F900F900F900F900F900F90C5CF68
:102F500081E090E00E943A1186CF6F927F928F922B
:102F60009F92AF92BF92CF92DF92EF92FF920F9318
:102F70001F93CF93DF9300D000D000D01F92CDB726
:102F8000DEB7DB0155962D913C91232B09F46BC1E3
:102F90006B017C010E942D08811102C080E02EC0CF
:102FA000F6019289292F2F702C3008F052C1E22FA0
:102FB000F0E08827E152F84E8F4F0C945835EB170C
:102FC000131813181318181818181D1848188218F1
:102FD000821829192319D6015596ED91FC9101E02B
:102FE0008081811101C000E010E020E030E040E08D
:102FF00050E060E070E0C7010E9462062A960FB6BA
:10300000F894DEBF0FBECDBFDF91CF911F910F911E
:10301000FF90EF90DF90CF90BF90AF909F908F90F8
:103020007F906F900895B601C7010E940D07E6CF0B
:10303000B601C7010E94B505E1CFD6015596ED91C5
:10304000FC915697309741F450E040E070E060E02A
:10305000C7010E940008D2CF40815181907CA1F429
:103060001E968D919C9102978417950768F4F7013D
:1030700080859185009711F489E893E0D70119962E
:103080009C938E9318978ACFBF016E5F7F4FE0CFDE
:10309000907C9038F9F0F60186859785009761F469
:1030A000D70118968D919C91009711F48DE993E0CA
:1030B000F7019187808772CF0197D60155966D9160
:1030C0007C91FB0150E040E06115710559F450E03E
:1030D00040E0BECF8FEF9FEFF0CF222309F4B8CFAF
:1030E0004F5F5F4F219148175907B9F7222309F421
:1030F000AFCFF70180859185009709F0BFCF80EBB6
:1031000093E0BCCFF601818D928D892B49F4D701D4
:1031100018968D919C91009759F684EC93E0C8CF56
:10312000293099F1D60155966D907C905697599615
:103130008D909C90FE0131965F018AE0DF011D9227
:103140008A95E9F7A301B401CF010E9447168823AD
:1031500081F1CF80D884860120E030E040E050E06B
:1031600060E070E0C7010E946206882309F446CF40
:10317000F701208131812115310519F5A60170E093
:1031800060E0C7010E94770539CF4789508D41150E
:10319000510541F2FA0134970190F081E02D30970A
:1031A00009F242505109B601C70119958111BACFF0
:1031B000F5CE29853A85D70119963C932E93189719
:1031C0001DCF868197818C0D9D1D448155814817A7
:1031D000590740F480859185009709F069CF8AE905
:1031E00092E066CF3A832983828193819C838B838B
:1031F000DE82CD8218861F821A861986A301B40149
:10320000C5010E9447164F815885F70126813781F5
:10321000240F351F378326832B813C813383228300
:1032200029853A85C416D50619F431872087E6CE5C
:103230002115310511F42DED33E0D70119963C939A
:103240002E931897ABCEF60146855785658976890A
:10325000FFCED70118968D919C91009709F028CF49
:1032600081EC92E025CF81E0C9CE6F927F928F9260
:103270009F92AF92BF92CF92DF92EF92FF920F9305
:103280001F93CF93DF9300D000D000D01F92CDB713
:10329000DEB76C017B01DB0152968C915297982F1F
:1032A0009073903311F55796ED91FC9158972081CA
:1032B00031811C968D919C912817390701F5F701F2
:1032C000828925893689232BC1F58073C1F4F601E3
:1032D00080859185009711F481EF93E0D6011996CE
:1032E0009C938E93189780E00BC0903141F75796CE
:1032F000ED91FC913097C9F080818111E0CF81E0A0
:103300002A960FB6F894DEBF0FBECDBFDF91CF91E6
:103310001F910F91FF90EF90DF90CF90BF90AF90F3
:103320009F908F907F906F900895807C41F6CB01A5
:103330000E947C15882319F2E2CF982F907C90345C
:10334000E9F40190F081E02D0680F781E02D3097BF
:10335000B1F2A701B60190E080E019958111CFCFBD
:10336000F601208531852115310511F428E034E07E
:10337000D60119963C932E931897C2CF282F20730D
:10338000203209F019C1D7010788F08DE02DA08007
:10339000B180A114B10409F4B2CF903879F05096FD
:1033A0002D913C912A153B0548F4F60180859185C5
:1033B000009709F093CF87E194E090CF8F7010E0F1
:1033C00000E0863008F0C1C0F701448555859A01B8
:1033D00040E050E060E070E080E090E003E00E94B8
:1033E0006035022F242F0260132F352FAB01BC0153
:1033F000C6010E946206882309F475CFD701529650
:103400008C918F70843009F54501880C991C880CCB
:10341000991C840120E030E040E050E060E070E082
:10342000C6010E946206882309F45DCFF6018081FF
:10343000918110E000E0892B09F05FC0A40170E0E9
:1034400060E0C6010E9477055BCF853039F4450105
:1034500083E0880C991C8A95E1F7DBCFFE01319659
:103460004F018AE0DF011D928A95E9F7F70165882F
:10347000768810E000E0B701C4010E940D078111B9
:1034800012C0D60118962D913C912115310539F4C1
:1034900029853A852115310511F42FE234E0F60132
:1034A000318720872DCFD70155968D919C915697C6
:1034B0001E962D913C911F97820F931F56969C93B9
:1034C0008E9355970F5F1F4FA016B106A1F6569623
:1034D0007C926E9255978F8098849BCFF701858957
:1034E000968926853785820F931F968B858B0F5F74
:1034F0001F4FA016B10609F402CFD70152968C9146
:103500008F708450990BB701029730F4C6010E9466
:10351000B5058111E3CFE7CEC6010E940D07F9CFB3
:1035200080E03CC0C6010E94AD1739C0F701858913
:10353000968926853785820F931F968B858B0F5F23
:103540001F4FA016B10609F4DACED70152968C911E
:103550005297982F907C903851F58F708650990B28
:10356000029728F555968D909C905697F40180818E
:10357000918156969C938E935597B701892B91F61E
:10358000C6010E942D08882359F2198241E050E0BB
:10359000BE016F5F7F4FC6010E9477058170D70122
:1035A00056969C928E9255978111C0CF9CCEB701B2
:1035B000C6010E94AD17F8CFB701C6010E94AD1732
:1035C0009FCECF92DF92EF92FF920F931F93CF93F4
:1035D000DF93CDB7DEB7AA970FB6F894DEBF0FBE64
:1035E000CDBF8C016E018CE1C80ED11C88E0D601E4
:1035F0001D928A95E9F71CA21DA21EA21FA219A660
:1036000018A6D801ED91FC91848195810097C9F0AD
:103610002FE532E03D8F2C8F9F8F8E8F8FEF9FEFA6
:1036200099A388A39E01265D3F4FAE014C5D5F4F7D
:10363000BE01685D7F4FC6010E941B0A882309F402
:10364000C7C0F8018289282F2F702A3009F05DC089
:103650000588F689E02DE080F180E114F10409F09D
:1036600040C04CA15DA16EA17FA14115510561052E
:10367000710549F1F80184859585B0E0A0E048170F
:1036800059076A077B07F9F468A579A5A801C6015F
:103690000E94EA1B882309F49BC09E01265D3F4FD0
:1036A000AE014C5D5F4FBE01685D7F4FC6010E9459
:1036B0001B0A882309F48CC0D8015796ED91FC9120
:1036C000309709F01082C8010E947B0BC8010E944C
:1036D000F50BF80184819581892B09F0B2CF81E047
:1036E0004AC0B701CE0101960E941816882349F0FE
:1036F000D70116961C92CE0101960E94E11A8823EA
:10370000D1F1F701E480F580A8CF982F907C09F0E3
:1037100053C0982F90739031E9F50788F08DE02D14
:10372000309709F010822850330BF801858996896B
:1037300022303105C0F5018CF28DE02D24813581D8
:10374000232B51F426813781232B31F4A281B381BD
:103750002D913C91232B39F1AC01BF01CE01019693
:103760000E946E15882309F47CCFCE0101960E9439
:10377000E11A811176CFAA960FB6F894DEBF0FBE7C
:10378000CDBFDF91CF911F910F91FF90EF90DF9010
:10379000CF900895D80185FFC6CF5796ED91FC9143
:1037A000118210825ECFD8011E964D915C9170E01F
:1037B00060E00E94BA3755CF903809F052CFD80157
:1037C0000388F489E02D1182108285FF4ACFE5CF6E
:1037D00080E0D1CF8F929F92AF92BF92CF92DF9233
:1037E000EF92FF920F931F93CF93DF93CDB7DEB786
:1037F000A3970FB6F894DEBF0FBECDBF8C015B015F
:103800007A01DA0152968C915297982F907C9034DD
:1038100009F425C1903809F418C19111CAC1982F33
:103820009073903109F467C078F4992309F46AC061
:10383000D80116968D919C91009711F481EC92E03D
:10384000F801978386838CC0903209F462C090336C
:1038500079F78F708850990B029708F0EDC0579652
:10386000ED91FC915897208131811C968D919C910E
:103870001D972817390709F4DFC01E964D915C91FA
:103880001F9770E060E055968D919C910E94BA3729
:10389000D7015996ED91FC9184819581892B59F43A
:1038A00086819781892B39F4A281B3818D919C9176
:1038B000892B09F4C1C0D70155964D915C91BF0188
:1038C000CE0101960E946E15882309F4B5C0CE0181
:1038D00001960E94E11AD82E8111AEC0F8018681AE
:1038E0009781009711F485E494E0D80117969C9392
:1038F0008E9316977FC05796ED91FC91309711F0FB
:1039000081E08083A701B501C8010E94D921D82E8A
:1039100071C0FA018788908CD4014D915C91268505
:103920003785429FB001439F700D529F700D112447
:1039300023893489260F371FB2E0AB16B10409F092
:103940006DC08F70863008F069C0368B258BBE0144
:103950006F5F7F4FC8010E94C909D82E811120C016
:10396000D12C48C0A7016FEF70E0CE0101960E94F4
:10397000D9218823A1F1F40180819181019691835D
:103980008083D70155968D919C9156971E962D91C7
:103990003C911F97820F931F56969C938E93559739
:1039A0008D819E81892B51F0F40120813181D701D5
:1039B00050968D919C9128173907A0F28D819E8198
:1039C000892B79F0F80186819781009711F486E3BD
:1039D00094E0D80117969C938E931697C1CFD12C63
:1039E000EDCFBE016F5F7F4FC8010E94D50A8823CB
:1039F00009F4B6CF8D2DA3960FB6F894DEBF0FBE97
:103A0000CDBFDF91CF911F910F91FF90EF90DF908D
:103A1000CF90BF90AF909F908F900895F701368B15
:103A2000258BCA010196D4018D939C93808991893D
:103A30004817590738F666CFF701848595850788BA
:103A4000F08DE02D918380835DCFD80116968D9106
:103A50009C91009709F0F4CE8CE594E0F1CEED91C5
:103A6000FC9186819781892B21F4C8010E94F70A75
:103A70004ECF6230710591F5BE016F5F7F4FC80177
:103A80000E94C909D82E882309F4B4CFAD80BE8026
:103A9000D701ED91FC910680F781E02DA70170E040
:103AA00060E0CE0101961995D82E811109C0F80168
:103AB00086819781009709F018CF8EE694E015CFA4
:103AC0008D819E81009719F08A159B05F8F2BE0141
:103AD0006F5F7F4FC8010E94D50A19CF6130710511
:103AE00009F44DC070F06530710509F456C0D80175
:103AF00016968D919C91009709F0A2CE89E193E0F2
:103B00009FCECE0101964C01B12CA12C64019FEFF8
:103B1000A91AB90AABE0AA16B10449F4F8018681E2
:103B20009781009709F055CF82EE92E052CF41E0A5
:103B300050E0B401C8010E94630A882309F410CF41
:103B4000BFEF8B1A9B0AF601808187FDDFCF8FE5DF
:103B500092E09D8F8C8FCE0101969F8F8E8FB9A2A0
:103B6000A8A21BA21AA2D701ED91FC910680F781B1
:103B7000E02DA70170E060E04B961995C8CE48E0B3
:103B800050E0BE016F5F7F4FC8010E94630A28E0CA
:103B9000A22EB12C8111DBCFE3CE44E050E0BE0178
:103BA0006F5F7F4FC8010E94630A94E0A92EB12C79
:103BB000F1CFF80186819781009709F00ACF81EC57
:103BC00092E007CF2F923F924F925F926F927F9237
:103BD0008F929F92AF92BF92CF92DF92EF92FF921D
:103BE0000F931F93CF93DF93CDB7DEB7C155D109A4
:103BF0000FB6F894DEBF0FBECDBF7C0169012796DA
:103C00001FAE1EAE27971FAA18AE19AE1AAE1BAE76
:103C10001CAE1DAE1EAECE014C960E946E158823C2
:103C200009F464C2CD2809F061C2CE014C960E940D
:103C3000E11A81115BC2D70116962D913C91211595
:103C4000310511F425E434E0F70137832683CF5A98
:103C5000DF4F0FB6F894DEBF0FBECDBFDF91CF911F
:103C60001F910F91FF90EF90DF90CF90BF90AF909A
:103C70009F908F907F906F905F904F903F902F908C
:103C800008959E01295B3F4FAE01415C5F4FBE012D
:103C90006D5B7F4FC7010E941B0A811107C02896E8
:103CA0008FAD289781110EC180E0D1CF23968CACC7
:103CB0009DACAEACBFAC239781149104A104B104B8
:103CC00061F4D70116968D919C91009711F48EE7BF
:103CD00094E0F70197838683E7CF88A599A5B0E0A4
:103CE000A0E088169906AA06BB0609F49BC0EC8DD5
:103CF000FD8D4485558570E060E0481559056A05DD
:103D00007B0508F43CC0C8A0D9A088169906AA066D
:103D1000BB0620F48085918599A388A3CE014C969B
:103D20000E947B0BAC8DBD8D8AA19BA1880F991F32
:103D3000880F991FED91FC91E80FF91F85919591DE
:103D4000A591B49102E0B695A795979587950A95A8
:103D5000D1F788259925AA25BB258F739927AA27EE
:103D6000BB27892B8A2B8B2B09F449C088A199A1E9
:103D7000C816D90699F6CE014C960E94F50B41144F
:103D800051046104710409F066C08EA58F708A30F9
:103D900009F453C0C8A0D9A0CE014C960E947B0B59
:103DA000AC8DBD8D8AA19BA1880F991F880F991F8B
:103DB000ED91FC91E80FF91F85919591A591B49132
:103DC000892F9A2FAB2FBB278F709927AA27BB2744
:103DD0000A97A105B10509F0C1C0CE014C960E9419
:103DE000F50B81112AC02C968EAD9FAD2C97892B97
:103DF00009F0B7C144244A94542C32012CC0CE019E
:103E00004C960E94F50B88A599A5B0E0A0E0881615
:103E10009906AA06BB0609F0A9CF8EA58F708A3035
:103E200009F4A4CF8EA5982F9F709A3009F0E9C0AD
:103E3000411451046104710471F4E9A9FAA92081C3
:103E400031812C963FAF2EAF2C97232B99F248A4AB
:103E500059A4712C612C23968CAC9DACAEACBFAC3C
:103E6000239784149504A604B70408F470C1D701FD
:103E700014960D90BC91A02D6296BFAFAEAF629725
:103E80002596EEADFFAD25976096FFAFEEAF60973C
:103E90002C96CEACDFAC2C97F7018481958162968D
:103EA0002EAD3FAD6297C114D10409F44CC128175F
:103EB000390709F45EC0D70114968D919C91892B26
:103EC00009F0DFCE2E96EEADFFAD2E97319641F084
:103ED00027968EAD9FAD27978215930509F0B0C048
:103EE000EC8DFD8D828593850097B1F1813491052C
:103EF00010F080E490E09C0145E0369527954A95C6
:103F0000E1F7FE01F79650E040E02417350709F08D
:103F100004C1AC014F715527452BF1F0220F331F1F
:103F2000220F331FFE01E20FF31F8F7120E2281BC7
:103F30008FEF9FEFDC0104C0B695A7959795879505
:103F40002A95D2F747A950AD61AD72AD4817590710
:103F50006A077B0709F0EAC081E079CE88A199A1C0
:103F6000C816D90609F018CFCE014C960E94F50B61
:103F70003ACFD601ED91FC910190F081E02D309780
:103F800089F060960EAD1FAD6097A5019401B60152
:103F9000C7011995882309F487CED6011496CD90D0
:103FA000DC907ACFB601CE0101960E9418168111DD
:103FB0000DC0F70186819781009711F48CE693E09C
:103FC000D70117969C938E9316976ECE8D859E85FE
:103FD000B0E0A0E088169906AA06BB06F1F68B8130
:103FE0009C81892BD1F221E0F6012683AE014F5F3F
:103FF0005F4F60966EAD7FAD6097C7010E94EA1B70
:10400000C9CF8073803209F040C08BA99CA92A9641
:10401000AEADBFAD2A978A179B0761F588A199A11C
:104020002E96EEADFFAD2E978E179F07E9F03196D5
:1040300089F027962EAD3FAD27972215330551F015
:10404000D70116968D919C91009709F042CE87E892
:1040500094E03FCE27961FAE1EAE27972CA43DA41A
:104060002E969FAF8EAF2E9725E430E02C0F3D1F8C
:104070003CAB2BAB25966EAD7FAD2597AE01445E74
:104080005F4FC7010E94EA1B69C08111F3CF8CA169
:104090009DA18034910570F7FC0155E0F695E795F8
:1040A0005A95E1F7EE0FFF1FEE0FFF1FA1E0B0E002
:1040B000AC0FBD1FEA0FFB1F8F71992741E050E045
:1040C00060E070E004C0440F551F661F771F8A959B
:1040D000D2F786A997A9A0ADB1AD842B952BA62BBD
:1040E000B72B86AB97ABA0AFB1AFC4CF312C212C8F
:1040F000EFEFFFEF2E96FFAFEEAF2E972C961FAE91
:104100001EAE2C97412C512C32019E01245D3F4F55
:104110002A963FAF2EAF2A97CECE81909190A19054
:10412000B1908B208A208920809451F0D701169677
:104130008D919C91009709F0CCCD81EF93E0C9CD92
:104140004F5F5F4FE2CE2817390709F0B4CE2596AE
:104150006EAD7FAD2597C7010E94F70A8111ABCEE6
:10416000A3CD23968CAC9DACAEACBFAC23977FCED9
:104170002F923F924F925F926F927F928F929F9277
:10418000AF92BF92CF92DF92EF92FF920F931F9365
:10419000CF93DF93CDB7DEB7CE5FD1400FB6F894A3
:1041A000DEBF0FBECDBF6BE273E082EA97E00E94F4
:1041B00022309E012F5F3F4F7901690110E000E03E
:1041C00029010097D9F586E997E0C350DE4F99831E
:1041D0008883CD5FD1404E019BEF890E911C540125
:1041E000D12CC12C0C151D05B1F160E873E0F7016D
:1041F000819191917F010E9422303C0160E873E03F
:1042000090E080E00E9422301C01C3010E94DD2F5B
:10421000C350DE4FA881B981CD5FD1408D939D936E
:10422000C350DE4FB983A883CD5FD140F501219201
:1042300031925F01FFEFCF1ADF0AD4CF0F5F1F4F1C
:10424000D6018D939D936D016BE273E090E080E069
:104250000E942230B6CF109395070093940710E088
:1042600000E081E06FE5E62E62E0F62E20919407F3
:1042700030919507021713070CF081C0D401ED911E
:10428000FD914D01DF010D900020E9F711979D018F
:104290002E1B3F0B369527956F01A201BA016419B9
:1042A0007509621773074CF5D60111966C91119739
:1042B0009C917FEB790F7630B0F07FE9790F763003
:1042C00080F090537FEB760F763078F467539295B9
:1042D000907F960FDA019D93AD01B2E0CB0ED11C19
:1042E000DDCF9755EFCF9753EDCF7FE9760F76303F
:1042F00010F46755ECCF6053EACFDF010D9000203A
:10430000E9F71197AE1BBF0BCB50DE4FF982E88265
:10431000C55FD140C950DE4F59824882C75FD14046
:10432000B695A795C750DE4FB983A883C95FD14022
:10433000C550DE4F19821882CB5FD1408823E1F04F
:10434000F801EE0FFF1FEA56F84F80819181FC01C2
:10435000EE0FFF1FEC57F64F40815181880F991FD8
:10436000FC01EA59F64F6081718130E020E0CE0116
:104370008B509E4F0E94E21D0F5F1F4F77CFC250A0
:10438000DE4F0FB6F894DEBF0FBECDBFDF91CF91E9
:104390001F910F91FF90EF90DF90CF90BF90AF9063
:1043A0009F908F907F906F905F904F903F902F9055
:1043B00008954F925F927F928F929F92AF92BF9299
:1043C000CF92DF92EF92FF920F931F93CF93DF93E1
:1043D00000D000D01F921F92CDB7DEB7DC01FA01EA
:1043E00092899F709C3008F03EC32A014D01E92F4D
:1043F000F0E08827E150FE4D8F4F0C9458350B228A
:104400004D224D224D229F23C023E92343249B2488
:104410009B243325F6246115710569F06F3F710502
:1044200051F0D40116968D919C91009709F083C1AB
:1044300088EA94E080C1D20155960D911C9150E01C
:1044400040E0BE016F5F7F4FC4010E943809782EA3
:10445000882361F081E049815A816B817C81452B01
:10446000462B472B09F480E0F8018083872D28969E
:104470000FB6F894DEBF0FBECDBFDF91CF911F9175
:104480000F91FF90EF90DF90CF90BF90AF909F90F3
:104490008F907F905F904F9008956115710521F086
:1044A0006F3F710509F0BDCFBE016F5F7F4F923046
:1044B00009F071C0C4010E94B808782E8823B1F2B7
:1044C000D2011E968D919C911F978830910539F5E8
:1044D000A980BA80CB80DC80ED80FE800F811885BA
:1044E0005596ED91FC91A082B182C282D382E48282
:1044F000F5820683178329813A814B815C816D8126
:104500007E818F8198850E94963509F4AFCFF401A2
:10451000868197810097C9F588EB94E036C0843096
:104520009105A1F439812A819B818C815596ED9169
:10453000FC91A32EB22EC92ED82E308321839283D4
:104540008383E12CF12C00E010E0D5CF823091057F
:1045500061F499818A815596ED91FC91A92EB82E2E
:1045600090838183C12CD12CECCF019739F4A980A1
:104570005596ED91FC91A082B12CF4CFF401868187
:104580009781009711F48FEA92E0D40117969C93DB
:104590008E931697DCC1933009F053C0C4010E947A
:1045A000B808782E882309F461CFF9813A814B81CC
:1045B0005C816D817E812F2F8F81988501E00E9423
:1045C0007B3559016A017B01E82F192F2F2F2170AC
:1045D00030E040E050E060E070E080E090E0A0E09B
:1045E0007E2E0E949F3541F0A094B094C094D09448
:1045F000E094F09470941095D2011E968D919C9148
:104600001F978830910509F03FC055960D90BC91D9
:10461000A02DAC921196BC9211971296CC92129743
:104620001396DC9213971496EC9214971596FC92BD
:10463000159716967C92169717961C937724739469
:1046400015CFC4010E94B808782E882309F40ECF34
:1046500009811A812B813C814D815E816F81788532
:10466000F2018685978558016901089721F47A013E
:10467000762E172FC1CF330F000B102F9801E02E8D
:10468000F02E702E102FB8CF8430910539F5A5018A
:10469000B601F201A589B6894D935D936D937C9324
:1046A00013979501FC2DBD2D770F440B542FBA01A4
:1046B000042FA42F842F942F4F2F5B2F602F7A2F3E
:1046C000072D0E94963509F4B9CFD40116968D9125
:1046D0009C91009781F588EB94E02DC08230910584
:1046E00089F4F201A589B689AC921196BC922A2D63
:1046F0003B2DFB2DFF0FFF0BBF2F0F2FAF2F8F2F4A
:104700009F2FDACF019779F4F201A589B689AC928F
:104710002A2D3A2D330F330BF32FB32F032FA32F53
:10472000832F932FC9CFD40116968D919C9100971A
:1047300011F48FEA92E0F4019783868308C1653013
:10474000710521F06F3F710509F06BCED2015596CE
:104750000D911C9144E050E0BE016F5F7F4FC4019A
:104760000E94630A782E882309F480CE89819A8179
:10477000AB81BC81F80180839183A283B38376CE21
:104780006130710521F06F3F710509F04ACED20109
:1047900055960D911C9148E050E0BE016F5F7F4F30
:1047A000C4010E94630A782E882309F45FCE7981C0
:1047B0006A815B814C813D812E819F818885F801D2
:1047C00070836183528343833483258396838783F5
:1047D0004DCE6230710509F024CE50E040E0BE01BC
:1047E0006F5F7F4FCD010E943809782E882309F42E
:1047F0003DCE49815A816B817C8141155105F1E0A3
:104800006F07710550F0D40116968D919C91009719
:1048100009F091CF8AEC94E08ECF9A012E5F3F4F42
:10482000C901B0E0A0E084179507A607B70750F4C8
:10483000D40116968D919C91009709F07CCF8AE067
:1048400093E079CFD20152968C915297807C803838
:1048500049F4F40186819781009709F096CE8CE5A2
:1048600094E093CEF201868597858217930758F2DC
:104870005596ED91FC9141935193BF01C4010E9463
:10488000630A782EF3CD6230710549F0F401868118
:104890009781009709F079CE88EA94E076CEFA0104
:1048A0000589168950E040E0BE016F5F7F4FCD0162
:1048B0000E943809782E882309F4D8CD89819A81FD
:1048C000AB81BC818F3FFFEF9F07AF07BF0709F4A4
:1048D000AFCFAC014F5F5F4F6A01F12CE12CC816DE
:1048E000D906EA06FB0608F4A3CFF2012289207C50
:1048F000203851F4D40116968D919C91009709F0BF
:104900001ACF8CE594E017CF268537852417350715
:1049100050F4D40116968D919C91009709F00BCF1D
:1049200089ED94E008CF800F911FDC011C92498132
:104930005A81B801A3CF6230710509F0A7CFBE013B
:104940006F5F7F4FCD010E94C909811102C0712C98
:104950008DCDF201818D928D892B51F4D401169663
:104960008D919C91009709F0E6CE84EC93E0E3CE24
:1049700082898F708930C1F0F2018289982F907CF2
:1049800020E030E031F4807321E030E0803209F43F
:1049900020E0F20145895689618D728DCE01019624
:1049A0000E94E21D782E19C04789508D411551058E
:1049B00019F3FA0134970190F081E02D3097E1F27C
:1049C00042505109B201CE0101961995782E8823E3
:1049D00021F08D819E81892B79F6BE016F5F7F4F1B
:1049E000C4010E94D50A811141CDB1CF6230710559
:1049F00009F017CD50E040E0BE016F5F7F4FCD0161
:104A00000E943809782E882309F430CD89819A8153
:104A1000AB81BC810097F1E0AF07B10508F0F3CEA0
:104A2000F201468557850097A105B10539F470E07C
:104A300060E0858996890E94BA3718CD8A0130E0F6
:104A400020E080179107A207B30751F0D401169612
:104A50008D919C91009709F06ECE89EE94E06BCE1B
:104A6000658976890BCF16968D919C911797009743
:104A700009F08CCD81EC92E089CDCF92DF92EF925C
:104A8000FF920F931F93CF93DF9311E08FE198E094
:104A90000E94DC02181619060CF072C08FE198E033
:104AA0000E94BA02082F8091AC099091AD09892B20
:104AB00009F44EC0C091A809D091A909602F002E19
:104AC000000C770BCE010E94C137009709F440C05B
:104AD0008C1B9D0B2091F205222309F44BC0C09141
:104AE000F005D091F1058091A6099091A7099E014A
:104AF0002E55384F7901892B91F0C090A209D090A2
:104B0000A309602F002E000C770BC6010E94C1374D
:104B1000009729F08C199D098F3F9807E1F4CE0189
:104B200001969093F1058093F005F70100838C378F
:104B300091050CF4ABCF109392078E55984FFC0162
:104B400010821092F2051092F1051092F0059ECF9E
:104B50008FEF9FEFBFCFF70110821092F2051092F6
:104B6000F1051092F00590930102809300021093DA
:104B700093078CCF019609F489CF1093F20586CF65
:104B8000DF91CF911F910F91FF90EF90DF90CF9029
:104B900008950E94E80281110E943D2580E090E086
:104BA000892B49F080E090E0892B29F00E940000D9
:104BB00081110E94000080E090E0892B49F080E0A4
:104BC00090E0892B29F00E94000081110E940000D2
:104BD00080E090E0892B49F080E090E0892B29F07B
:104BE0000E94000081110C94000008951F920F9202
:104BF0000FB60F9211240BB60F922F933F934F9342
:104C00005F936F937F938F939F93AF93BF93EF9334
:104C1000FF938FE198E00E94F202FF91EF91BF9124
:104C2000AF919F918F917F916F915F914F913F9144
:104C30002F910F900BBE0F900FBE0F901F901895E5
:104C40001F920F920FB60F9211240BB60F922F9353
:104C50008F939F93EF93FF93E0912F08F09130088B
:104C60008081E0913508F091360882FD1DC0908169
:104C7000809138088F5F8F7320913908821741F037
:104C8000E0913808F0E0E15EF74F958F80933808A7
:104C9000FF91EF919F918F912F910F900BBE0F90ED
:104CA0000FBE0F901F9018958081F2CF1F920F9228
:104CB0000FB60F9211242F933F938F939F93AF932F
:104CC000BF938091FA069091FB06A091FC06B091EB
:104CD000FD063091F90623E0230F2D3758F5019694
:104CE000A11DB11D2093F9068093FA069093FB064F
:104CF000A093FC06B093FD068091FE069091FF06FE
:104D0000A0910007B09101070196A11DB11D8093EC
:104D1000FE069093FF06A0930007B0930107BF9192
:104D2000AF919F918F913F912F910F900FBE0F9058
:104D30001F90189526E8230F0296A11DB11DD2CF12
:104D40001F920F920FB60F9211240BB60F922F9352
:104D50003F934F935F936F937F938F939F93AF9303
:104D6000BF93EF93FF9348E251E064E271E090E07B
:104D700080E00E94CD04FF91EF91BF91AF919F9190
:104D80008F917F916F915F914F913F912F910F90F4
:104D90000BBE0F900FBE0F901F9018951F920F9291
:104DA0000FB60F9211240BB60F922F933F934F9390
:104DB0005F936F937F938F939F93AF93BF93EF9383
:104DC000FF9348EA50E064EA70E083E090E00E94DC
:104DD000CD04FF91EF91BF91AF919F918F917F9102
:104DE0006F915F914F913F912F910F900BBE0F905C
:104DF0000FBE0F901F9018951F920F920FB60F9233
:104E000011240BB60F922F933F934F935F936F93A1
:104E10007F938F939F93AF93BF93EF93FF9348E953
:104E200050E064E970E082E090E00E94CD04FF91E0
:104E3000EF91BF91AF919F918F917F916F915F9112
:104E40004F913F912F910F900BBE0F900FBE0F907F
:104E50001F9018951F920F920FB60F9211240BB648
:104E60000F922F933F934F935F936F937F938F9303
:104E70009F93AF93BF93EF93FF9348E850E064E8AC
:104E800070E081E090E00E94CD04FF91EF91BF912E
:104E9000AF919F918F917F916F915F914F913F91D2
:104EA0002F910F900BBE0F900FBE0F901F90189573
:104EB0001F920F920FB60F9211240BB60F922F93E1
:104EC0003F934F935F936F937F938F939F93AF9392
:104ED000BF93EF93FF938091B900887F803609F4E8
:104EE0004DC008F040C0883209F4A7C028F58031D1
:104EF00009F49BC0C8F4882309F4F7C0883009F48A
:104F000094C0FF91EF91BF91AF919F918F917F914D
:104F10006F915F914F913F912F910F900BBE0F902A
:104F20000FBE0F901F901895883109F486C080320B
:104F300041F780933E0614C0803409F49BC040F4CE
:104F40008033B9F38833E9F680933E0685ECAEC032
:104F5000803509F483C0883509F494C0883489F613
:104F60000E94F914CECF883909F48AC038F5883701
:104F700029F050F4883611F0803719F683E08093D9
:104F80003F0610923D0655C0883809F479C0803933
:104F900019F0803809F0B5CF80913D06803208F0D5
:104FA0006FC0E0913D0681E08E0F80933D068091B9
:104FB000BB00F0E0E35EF94F80833BC0803B39F0FB
:104FC000D0F4803A09F477C0883A09F09ACF84E0A7
:104FD00080933F0610921C0610921B06F0E0E0E062
:104FE000199580911B0681110FC081E080931B06EB
:104FF0001092FB0509C0803C09F4A8CF883C09F455
:10500000A5CF883B09F07DCFE0911C0681E08E0F93
:1050100080931C06F0E0E550FA4F80818093BB003E
:1050200090911C0680911B0629C080916406809394
:10503000BB0085EC8093BC0064CF909163068091A7
:105040006206981758F5E091630681E08E0F809311
:105050006306F0E0EE5BF94F8081E9CFE0916306F3
:1050600081E08E0F809363068091BB00F0E0EE5BE1
:10507000F94F808390916306809162069817C8F279
:1050800085E8D8CFE091630681E08E0F80936306B8
:105090008091BB00F0E0EE5BF94F80838091410688
:1050A00081115ECF81E08093400684EA8093BC004A
:1050B00010923F0626CF85EC8093BC0010923F06ED
:1050C00080913D06803230F4E0913D06F0E0E35EF1
:1050D000F94F108260913D0670E08DE196E0F0E0BE
:1050E000E0E0199510923D060CCF10923E0638CFA5
:1050F000FC0180E090E0A0E5B1E486839783A0877F
:10510000B18780E090E0A0E3B1E482879387A48731
:10511000B58783E393E3A3E3BFE386879787A08BF9
:10512000B18B128A138A148A158A168A178A108EEE
:10513000118E128E138E148E158E168E178E10A24F
:1051400011A212A213A214A215A216A217A210A6AF
:1051500011A612A613A614A615A616A617A610AA7F
:1051600011AA12AA13AA14AA15AA80E090E0A0E836
:10517000BFE386AB97ABA0AFB1AF13AE12AE17AE25
:1051800016AEE05CFF4F80839183A283B3830895C2
:10519000109222081092210888EE93E0A0E0B0E07F
:1051A0008093230890932408A0932508B0932608A1
:1051B00082E392E09093200880931F0885EC90E0B2
:1051C00090932C0880932B0884EC90E090932E0809
:1051D00080932D0880EC90E09093300880932F0806
:1051E00081EC90E0909332088093310882EC90E05B
:1051F000909334088093330886EC90E090933608BF
:1052000080933508109238081092390810923A08A5
:1052100010923B086BE075E088EA99E00E94AA10C2
:105220006EE075E082EA99E00E94AA10E0E4F2E004
:105230002AE932E080819181DC01AA0FBB1FAA59C3
:10524000B64F428153814D935C93880F991FDC01C7
:10525000AC57B64F848195818D939C9336962E17CB
:105260003F0741F78FEF9FEF9093530980935209C7
:1052700061E175E084E599E00E94AA106CE175E0B7
:105280008AE599E00E94AA1064E275E080E699E060
:105290000E94AA108EE099E00E9478288AEC98E09B
:1052A0000C947828CF93DF93CDB7DEB7AD970FB6C8
:1052B000F894DEBF0FBECDBF789484B5826084BD04
:1052C00084B5816084BD85B5826085BD85B581600A
:1052D00085BD80916E00816080936E001092810088
:1052E0008091810082608093810080918100816043
:1052F0008093810080918000816080938000809104
:10530000B10084608093B1008091B000816080938F
:10531000B000809191008260809391008091910013
:1053200081608093910080919000816080939000D3
:105330008091A10082608093A1008091A100816092
:105340008093A1008091A00081608093A000809153
:1053500021018260809321018091210181608093ED
:1053600021018091200181608093200180917A0049
:10537000846080937A0080917A00826080937A00C2
:1053800080917A00816080937A0080917A008068B1
:1053900080937A001092C100E0912F08F0913008BC
:1053A00082E08083E0912B08F0912C081082E0913C
:1053B0002D08F0912E0880E1808310923708E0914B
:1053C0003308F091340886E08083E0913108F09151
:1053D0003208808180618083E0913108F091320849
:1053E000808188608083E0913108F091320880816B
:1053F00080688083E0913108F091320880818F7D50
:10540000808390E080E00E94143490E090935309F0
:1054100080935209009709F0FEC061E085E30E9485
:105420006B0460E085E30E9411048AE090E09093B1
:105430000F0980930E0986E090E090931109809304
:1054400010098CE290E0909313098093120941E0D7
:1054500069E170E08AE499E00E94581461E080916B
:105460000E090E946B0461E0809110090E946B0498
:1054700060E0809112090E946B0489E090E09093B3
:10548000CB088093CA0885E090E09093CD08809384
:10549000CC0880E390E09093CF088093CE0840E062
:1054A0006DE170E086E099E00E94581461E080911F
:1054B000CA080E946B0461E08091CC080E946B04D2
:1054C00060E08091CE080E946B0480E090E0A0E54F
:1054D000B1E48093140990931509A0931609B09331
:1054E0001709C12CD12C70E3E72E71E4F72EC0927E
:1054F0001809D0921909E0921A09F0921B0910922A
:105500001C0910921D0910921E0910921F098EE0AD
:1055100099E00E94910D80E090E0A8E2B2E48093CF
:10552000D0089093D108A093D208B093D308C0922A
:10553000D408D092D508E092D608F092D7081092FD
:10554000D8081092D9081092DA081092DB088AEC79
:1055500098E00E94910D40E050E0BA018EE099E0A1
:105560000E94B90D40E050E0BA018AEC98E00E9438
:10557000B90D89E390E09093C1088093C00888E357
:1055800090E09093BF088093BE088AE190E09093EA
:10559000C3088093C2088CE190E09093C508809383
:1055A000C40860E089E30E946B0460E08091BE085B
:1055B0000E946B0461E08091C2080E946B0461E06C
:1055C0008091C4080E946B040E94C3100E94C31003
:1055D0008091C8089091C908092E000CAA0BBB0B3A
:1055E00080935E0790935F07A0936007B093610775
:1055F0001F9285E08F931F9281E08F9386E699E05A
:105600009F938F930E94B9160F900F900F900F9059
:105610000F900F901EC08130910509F0EFC188E214
:1056200092E09093BD088093BC0861E086E30E94FD
:105630006B04E091BC08F091BD0861E082810E949A
:105640006B04E091BC08F091BD0861E084810E9488
:105650006B04DD24D39436E0C32E46E6E42E49E005
:10566000F42E22242A94322C412C512C60E8662EF0
:105670006FE3762E109193071123D1F180910002F0
:10568000909101020197A1F562EA77E0CE010196BF
:105690000E94AA1089819A81812C912C5401009733
:1056A00021F00E94FB2F4B015C01CE0101960E946C
:1056B000BB102AE282169104A104B10409F0D8C1FA
:1056C0008CE095E00E94890F209152093091530996
:1056D000C29EC001C39E900D11248C5A964F0E9409
:1056E000A2028FE095E00E94890F1D251093930779
:1056F000A0905209B0905309A114B10409F0B7C2A7
:105700000E94C10400916207109163072091640711
:1057100030916507601B710B820B930B6536710529
:105720008105910508F40CC10E94C10460936207D1
:105730007093630780936407909365070E94C3107A
:105740008091C8089091C908092E000CAA0BBB0BC8
:1057500040915E0750915F0760916007709161070B
:1057600084179507A607B70709F10E94C310809117
:10577000C8089091C908092E000CAA0BBB0B809396
:105780005E0790935F07A0936007B09361071F9235
:1057900085E08F931F92DF92FF92EF920E94B916DD
:1057A0000F900F900F900F900F900F908EE099E058
:1057B0000E94F9118AEC98E00E94F91182E090E0D1
:1057C000909349078093480780912809909129096F
:1057D000A0912A09B0912B0980934A0790934B0717
:1057E000A0934C07B0934D078091E4089091E50891
:1057F000A091E608B091E70880934E0790934F0779
:10580000A0935007B09351071F92DF921F92DF922F
:10581000FF92EF920E94B91688E090E090933307D0
:105820008093320780914A0790914B07A0914C07D3
:10583000B0914D078093340790933507A0933607B6
:10584000B093370780912C0990912D09A0912E09D2
:10585000B0912F098093380790933907A0933A07A6
:10586000B0933B078091440990914509A091460966
:10587000B091470980933C0790933D07A0933E0762
:10588000B0933F078091400990914109A09142094E
:10589000B09143098093400790934107A09342073A
:1058A000B093430780914E0790914F07A091500706
:1058B000B09151078093440790934507A093460702
:1058C000B09347078091E8089091E908A091EA0811
:1058D000B091EB088093480790934907A0934A073B
:1058E000B0934B078091000990910109A0910209A2
:1058F000B091030980934C0790934D07A0934E07F6
:10590000B0934F078091FC089091FD08A091FE088C
:10591000B091FF088093500790935107A0935207CE
:10592000B09353071F9287E08F931F92DF92FF92ED
:10593000EF920E94B9160FB6F894DEBF0FBECDBF2E
:1059400080919307882309F485C1109293070E94E0
:10595000B820882309F476C1809194079091950727
:10596000181619060CF06EC126E9822E27E0922E39
:105970008091940790919507A816B9060CF066C11E
:10598000F401619171914F016A30710509F427C1E9
:105990000CF070C06830710509F4FDC06930710504
:1059A00009F419C1CE0182960E9458106AE575E08B
:1059B000CE0188960E94AA10BE016E5D7F4FCE0177
:1059C00088960E942410BC01CE0101960E9490107E
:1059D000AE014F5F5F4F6CE070E082E090E00E94AC
:1059E000960FCE0101960E94BB10CE0188960E94B0
:1059F000BB10CE0182960E94BB10EDC0029721F52C
:105A000061E087E10E946B0460E087E10E9411047D
:105A100060E088E00E946B0488E00E94E80321E0D7
:105A2000892B09F420E020938C07822F90E0B0E0CE
:105A3000A0E08093880790938907A0938A07B0938A
:105A40008B071F9286E0D6CD6BE275E0CE01019602
:105A50000E94AA10AE014F5F5F4F6CE070E090E0D3
:105A600080E00E94960FCE0101960E94BB10FFCFEE
:105A700010E03BCE6E3071050CF4ADC06E30710598
:105A800009F090CF60911E0770911F078091200749
:105A9000909121071BA21AA21DA21CA21FA21EA246
:105AA0008E010F5F1F4F22E044E00E94BF2F00973E
:105AB00009F4C3C0FC0101900020E9F73197AF0160
:105AC000481B590BBC01CE0182960E94371063E43B
:105AD00075E0CE0188960E94AA10BE016E5D7F4FD0
